{
  "_format": "hh-sol-artifact-1",
  "contractName": "CarbonSinksAuction",
  "sourceName": "src/contracts/CarbonSinksAuction.sol",
  "abi": [
    {
      "inputs": [
        {
          "internalType": "uint256",
          "name": "_royaltyFee",
          "type": "uint256"
        }
      ],
      "stateMutability": "nonpayable",
      "type": "constructor"
    },
    {
      "anonymous": false,
      "inputs": [
        {
          "indexed": true,
          "internalType": "address",
          "name": "owner",
          "type": "address"
        },
        {
          "indexed": true,
          "internalType": "address",
          "name": "approved",
          "type": "address"
        },
        {
          "indexed": true,
          "internalType": "uint256",
          "name": "tokenId",
          "type": "uint256"
        }
      ],
      "name": "Approval",
      "type": "event"
    },
    {
      "anonymous": false,
      "inputs": [
        {
          "indexed": true,
          "internalType": "address",
          "name": "owner",
          "type": "address"
        },
        {
          "indexed": true,
          "internalType": "address",
          "name": "operator",
          "type": "address"
        },
        {
          "indexed": false,
          "internalType": "bool",
          "name": "approved",
          "type": "bool"
        }
      ],
      "name": "ApprovalForAll",
      "type": "event"
    },
    {
      "anonymous": false,
      "inputs": [
        {
          "indexed": true,
          "internalType": "uint256",
          "name": "tokenId",
          "type": "uint256"
        },
        {
          "indexed": false,
          "internalType": "address",
          "name": "seller",
          "type": "address"
        },
        {
          "indexed": false,
          "internalType": "address",
          "name": "owner",
          "type": "address"
        },
        {
          "indexed": false,
          "internalType": "uint256",
          "name": "price",
          "type": "uint256"
        },
        {
          "indexed": false,
          "internalType": "bool",
          "name": "sold",
          "type": "bool"
        }
      ],
      "name": "AuctionItemReady",
      "type": "event"
    },
    {
      "anonymous": false,
      "inputs": [
        {
          "indexed": false,
          "internalType": "uint256",
          "name": "_fromTokenId",
          "type": "uint256"
        },
        {
          "indexed": false,
          "internalType": "uint256",
          "name": "_toTokenId",
          "type": "uint256"
        }
      ],
      "name": "BatchMetadataUpdate",
      "type": "event"
    },
    {
      "anonymous": false,
      "inputs": [
        {
          "indexed": false,
          "internalType": "uint256",
          "name": "_tokenId",
          "type": "uint256"
        }
      ],
      "name": "MetadataUpdate",
      "type": "event"
    },
    {
      "anonymous": false,
      "inputs": [
        {
          "indexed": true,
          "internalType": "address",
          "name": "from",
          "type": "address"
        },
        {
          "indexed": true,
          "internalType": "address",
          "name": "to",
          "type": "address"
        },
        {
          "indexed": true,
          "internalType": "uint256",
          "name": "tokenId",
          "type": "uint256"
        }
      ],
      "name": "Transfer",
      "type": "event"
    },
    {
      "inputs": [
        {
          "internalType": "address",
          "name": "to",
          "type": "address"
        },
        {
          "internalType": "uint256",
          "name": "tokenId",
          "type": "uint256"
        }
      ],
      "name": "approve",
      "outputs": [],
      "stateMutability": "nonpayable",
      "type": "function"
    },
    {
      "inputs": [
        {
          "internalType": "address",
          "name": "owner",
          "type": "address"
        }
      ],
      "name": "balanceOf",
      "outputs": [
        {
          "internalType": "uint256",
          "name": "",
          "type": "uint256"
        }
      ],
      "stateMutability": "view",
      "type": "function"
    },
    {
      "inputs": [
        {
          "internalType": "uint256",
          "name": "tokenId",
          "type": "uint256"
        }
      ],
      "name": "buyAuctionedItem",
      "outputs": [],
      "stateMutability": "payable",
      "type": "function"
    },
    {
      "inputs": [
        {
          "internalType": "uint256",
          "name": "tokenId",
          "type": "uint256"
        },
        {
          "internalType": "uint256",
          "name": "price",
          "type": "uint256"
        }
      ],
      "name": "changePrice",
      "outputs": [],
      "stateMutability": "nonpayable",
      "type": "function"
    },
    {
      "inputs": [
        {
          "internalType": "uint256",
          "name": "tokenId",
          "type": "uint256"
        },
        {
          "internalType": "uint256",
          "name": "bid",
          "type": "uint256"
        }
      ],
      "name": "claimPrize",
      "outputs": [],
      "stateMutability": "nonpayable",
      "type": "function"
    },
    {
      "inputs": [],
      "name": "getAllAuctions",
      "outputs": [
        {
          "components": [
            {
              "internalType": "string",
              "name": "name",
              "type": "string"
            },
            {
              "internalType": "string",
              "name": "description",
              "type": "string"
            },
            {
              "internalType": "string",
              "name": "image",
              "type": "string"
            },
            {
              "internalType": "uint256",
              "name": "tokenId",
              "type": "uint256"
            },
            {
              "internalType": "address",
              "name": "seller",
              "type": "address"
            },
            {
              "internalType": "address",
              "name": "owner",
              "type": "address"
            },
            {
              "internalType": "address",
              "name": "winner",
              "type": "address"
            },
            {
              "internalType": "uint256",
              "name": "price",
              "type": "uint256"
            },
            {
              "internalType": "bool",
              "name": "sold",
              "type": "bool"
            },
            {
              "internalType": "bool",
              "name": "live",
              "type": "bool"
            },
            {
              "internalType": "bool",
              "name": "biddable",
              "type": "bool"
            },
            {
              "internalType": "uint256",
              "name": "bids",
              "type": "uint256"
            },
            {
              "internalType": "uint256",
              "name": "duration",
              "type": "uint256"
            }
          ],
          "internalType": "struct CarbonSinksAuction.AuctionStruct[]",
          "name": "Auctions",
          "type": "tuple[]"
        }
      ],
      "stateMutability": "view",
      "type": "function"
    },
    {
      "inputs": [
        {
          "internalType": "uint256",
          "name": "tokenId",
          "type": "uint256"
        }
      ],
      "name": "getApproved",
      "outputs": [
        {
          "internalType": "address",
          "name": "",
          "type": "address"
        }
      ],
      "stateMutability": "view",
      "type": "function"
    },
    {
      "inputs": [
        {
          "internalType": "uint256",
          "name": "id",
          "type": "uint256"
        }
      ],
      "name": "getAuction",
      "outputs": [
        {
          "components": [
            {
              "internalType": "string",
              "name": "name",
              "type": "string"
            },
            {
              "internalType": "string",
              "name": "description",
              "type": "string"
            },
            {
              "internalType": "string",
              "name": "image",
              "type": "string"
            },
            {
              "internalType": "uint256",
              "name": "tokenId",
              "type": "uint256"
            },
            {
              "internalType": "address",
              "name": "seller",
              "type": "address"
            },
            {
              "internalType": "address",
              "name": "owner",
              "type": "address"
            },
            {
              "internalType": "address",
              "name": "winner",
              "type": "address"
            },
            {
              "internalType": "uint256",
              "name": "price",
              "type": "uint256"
            },
            {
              "internalType": "bool",
              "name": "sold",
              "type": "bool"
            },
            {
              "internalType": "bool",
              "name": "live",
              "type": "bool"
            },
            {
              "internalType": "bool",
              "name": "biddable",
              "type": "bool"
            },
            {
              "internalType": "uint256",
              "name": "bids",
              "type": "uint256"
            },
            {
              "internalType": "uint256",
              "name": "duration",
              "type": "uint256"
            }
          ],
          "internalType": "struct CarbonSinksAuction.AuctionStruct",
          "name": "",
          "type": "tuple"
        }
      ],
      "stateMutability": "view",
      "type": "function"
    },
    {
      "inputs": [
        {
          "internalType": "uint256",
          "name": "tokenId",
          "type": "uint256"
        }
      ],
      "name": "getBidders",
      "outputs": [
        {
          "components": [
            {
              "internalType": "address",
              "name": "bidder",
              "type": "address"
            },
            {
              "internalType": "uint256",
              "name": "price",
              "type": "uint256"
            },
            {
              "internalType": "uint256",
              "name": "timestamp",
              "type": "uint256"
            },
            {
              "internalType": "bool",
              "name": "refunded",
              "type": "bool"
            },
            {
              "internalType": "bool",
              "name": "won",
              "type": "bool"
            }
          ],
          "internalType": "struct CarbonSinksAuction.BidderStruct[]",
          "name": "",
          "type": "tuple[]"
        }
      ],
      "stateMutability": "view",
      "type": "function"
    },
    {
      "inputs": [],
      "name": "getListingPrice",
      "outputs": [
        {
          "internalType": "uint256",
          "name": "",
          "type": "uint256"
        }
      ],
      "stateMutability": "view",
      "type": "function"
    },
    {
      "inputs": [],
      "name": "getLiveAuctions",
      "outputs": [
        {
          "components": [
            {
              "internalType": "string",
              "name": "name",
              "type": "string"
            },
            {
              "internalType": "string",
              "name": "description",
              "type": "string"
            },
            {
              "internalType": "string",
              "name": "image",
              "type": "string"
            },
            {
              "internalType": "uint256",
              "name": "tokenId",
              "type": "uint256"
            },
            {
              "internalType": "address",
              "name": "seller",
              "type": "address"
            },
            {
              "internalType": "address",
              "name": "owner",
              "type": "address"
            },
            {
              "internalType": "address",
              "name": "winner",
              "type": "address"
            },
            {
              "internalType": "uint256",
              "name": "price",
              "type": "uint256"
            },
            {
              "internalType": "bool",
              "name": "sold",
              "type": "bool"
            },
            {
              "internalType": "bool",
              "name": "live",
              "type": "bool"
            },
            {
              "internalType": "bool",
              "name": "biddable",
              "type": "bool"
            },
            {
              "internalType": "uint256",
              "name": "bids",
              "type": "uint256"
            },
            {
              "internalType": "uint256",
              "name": "duration",
              "type": "uint256"
            }
          ],
          "internalType": "struct CarbonSinksAuction.AuctionStruct[]",
          "name": "Auctions",
          "type": "tuple[]"
        }
      ],
      "stateMutability": "view",
      "type": "function"
    },
    {
      "inputs": [],
      "name": "getMyAuctions",
      "outputs": [
        {
          "components": [
            {
              "internalType": "string",
              "name": "name",
              "type": "string"
            },
            {
              "internalType": "string",
              "name": "description",
              "type": "string"
            },
            {
              "internalType": "string",
              "name": "image",
              "type": "string"
            },
            {
              "internalType": "uint256",
              "name": "tokenId",
              "type": "uint256"
            },
            {
              "internalType": "address",
              "name": "seller",
              "type": "address"
            },
            {
              "internalType": "address",
              "name": "owner",
              "type": "address"
            },
            {
              "internalType": "address",
              "name": "winner",
              "type": "address"
            },
            {
              "internalType": "uint256",
              "name": "price",
              "type": "uint256"
            },
            {
              "internalType": "bool",
              "name": "sold",
              "type": "bool"
            },
            {
              "internalType": "bool",
              "name": "live",
              "type": "bool"
            },
            {
              "internalType": "bool",
              "name": "biddable",
              "type": "bool"
            },
            {
              "internalType": "uint256",
              "name": "bids",
              "type": "uint256"
            },
            {
              "internalType": "uint256",
              "name": "duration",
              "type": "uint256"
            }
          ],
          "internalType": "struct CarbonSinksAuction.AuctionStruct[]",
          "name": "Auctions",
          "type": "tuple[]"
        }
      ],
      "stateMutability": "view",
      "type": "function"
    },
    {
      "inputs": [],
      "name": "getSoldAuction",
      "outputs": [
        {
          "components": [
            {
              "internalType": "string",
              "name": "name",
              "type": "string"
            },
            {
              "internalType": "string",
              "name": "description",
              "type": "string"
            },
            {
              "internalType": "string",
              "name": "image",
              "type": "string"
            },
            {
              "internalType": "uint256",
              "name": "tokenId",
              "type": "uint256"
            },
            {
              "internalType": "address",
              "name": "seller",
              "type": "address"
            },
            {
              "internalType": "address",
              "name": "owner",
              "type": "address"
            },
            {
              "internalType": "address",
              "name": "winner",
              "type": "address"
            },
            {
              "internalType": "uint256",
              "name": "price",
              "type": "uint256"
            },
            {
              "internalType": "bool",
              "name": "sold",
              "type": "bool"
            },
            {
              "internalType": "bool",
              "name": "live",
              "type": "bool"
            },
            {
              "internalType": "bool",
              "name": "biddable",
              "type": "bool"
            },
            {
              "internalType": "uint256",
              "name": "bids",
              "type": "uint256"
            },
            {
              "internalType": "uint256",
              "name": "duration",
              "type": "uint256"
            }
          ],
          "internalType": "struct CarbonSinksAuction.AuctionStruct[]",
          "name": "Auctions",
          "type": "tuple[]"
        }
      ],
      "stateMutability": "view",
      "type": "function"
    },
    {
      "inputs": [],
      "name": "getUnsoldAuction",
      "outputs": [
        {
          "components": [
            {
              "internalType": "string",
              "name": "name",
              "type": "string"
            },
            {
              "internalType": "string",
              "name": "description",
              "type": "string"
            },
            {
              "internalType": "string",
              "name": "image",
              "type": "string"
            },
            {
              "internalType": "uint256",
              "name": "tokenId",
              "type": "uint256"
            },
            {
              "internalType": "address",
              "name": "seller",
              "type": "address"
            },
            {
              "internalType": "address",
              "name": "owner",
              "type": "address"
            },
            {
              "internalType": "address",
              "name": "winner",
              "type": "address"
            },
            {
              "internalType": "uint256",
              "name": "price",
              "type": "uint256"
            },
            {
              "internalType": "bool",
              "name": "sold",
              "type": "bool"
            },
            {
              "internalType": "bool",
              "name": "live",
              "type": "bool"
            },
            {
              "internalType": "bool",
              "name": "biddable",
              "type": "bool"
            },
            {
              "internalType": "uint256",
              "name": "bids",
              "type": "uint256"
            },
            {
              "internalType": "uint256",
              "name": "duration",
              "type": "uint256"
            }
          ],
          "internalType": "struct CarbonSinksAuction.AuctionStruct[]",
          "name": "Auctions",
          "type": "tuple[]"
        }
      ],
      "stateMutability": "view",
      "type": "function"
    },
    {
      "inputs": [
        {
          "internalType": "address",
          "name": "owner",
          "type": "address"
        },
        {
          "internalType": "address",
          "name": "operator",
          "type": "address"
        }
      ],
      "name": "isApprovedForAll",
      "outputs": [
        {
          "internalType": "bool",
          "name": "",
          "type": "bool"
        }
      ],
      "stateMutability": "view",
      "type": "function"
    },
    {
      "inputs": [
        {
          "internalType": "string",
          "name": "name",
          "type": "string"
        },
        {
          "internalType": "string",
          "name": "description",
          "type": "string"
        },
        {
          "internalType": "string",
          "name": "image",
          "type": "string"
        },
        {
          "internalType": "string",
          "name": "tokenURI",
          "type": "string"
        },
        {
          "internalType": "uint256",
          "name": "price",
          "type": "uint256"
        }
      ],
      "name": "makeAuction",
      "outputs": [],
      "stateMutability": "payable",
      "type": "function"
    },
    {
      "inputs": [],
      "name": "name",
      "outputs": [
        {
          "internalType": "string",
          "name": "",
          "type": "string"
        }
      ],
      "stateMutability": "view",
      "type": "function"
    },
    {
      "inputs": [
        {
          "internalType": "uint256",
          "name": "tokenId",
          "type": "uint256"
        },
        {
          "internalType": "bool",
          "name": "biddable",
          "type": "bool"
        },
        {
          "internalType": "uint256",
          "name": "sec",
          "type": "uint256"
        },
        {
          "internalType": "uint256",
          "name": "min",
          "type": "uint256"
        },
        {
          "internalType": "uint256",
          "name": "hour",
          "type": "uint256"
        },
        {
          "internalType": "uint256",
          "name": "day",
          "type": "uint256"
        }
      ],
      "name": "offerAuction",
      "outputs": [],
      "stateMutability": "nonpayable",
      "type": "function"
    },
    {
      "inputs": [
        {
          "internalType": "uint256",
          "name": "tokenId",
          "type": "uint256"
        }
      ],
      "name": "ownerOf",
      "outputs": [
        {
          "internalType": "address",
          "name": "",
          "type": "address"
        }
      ],
      "stateMutability": "view",
      "type": "function"
    },
    {
      "inputs": [
        {
          "internalType": "uint256",
          "name": "tokenId",
          "type": "uint256"
        }
      ],
      "name": "placeBid",
      "outputs": [],
      "stateMutability": "payable",
      "type": "function"
    },
    {
      "inputs": [
        {
          "internalType": "address",
          "name": "from",
          "type": "address"
        },
        {
          "internalType": "address",
          "name": "to",
          "type": "address"
        },
        {
          "internalType": "uint256",
          "name": "tokenId",
          "type": "uint256"
        }
      ],
      "name": "safeTransferFrom",
      "outputs": [],
      "stateMutability": "nonpayable",
      "type": "function"
    },
    {
      "inputs": [
        {
          "internalType": "address",
          "name": "from",
          "type": "address"
        },
        {
          "internalType": "address",
          "name": "to",
          "type": "address"
        },
        {
          "internalType": "uint256",
          "name": "tokenId",
          "type": "uint256"
        },
        {
          "internalType": "bytes",
          "name": "data",
          "type": "bytes"
        }
      ],
      "name": "safeTransferFrom",
      "outputs": [],
      "stateMutability": "nonpayable",
      "type": "function"
    },
    {
      "inputs": [
        {
          "internalType": "address",
          "name": "operator",
          "type": "address"
        },
        {
          "internalType": "bool",
          "name": "approved",
          "type": "bool"
        }
      ],
      "name": "setApprovalForAll",
      "outputs": [],
      "stateMutability": "nonpayable",
      "type": "function"
    },
    {
      "inputs": [
        {
          "internalType": "uint256",
          "name": "_price",
          "type": "uint256"
        }
      ],
      "name": "setListingPrice",
      "outputs": [],
      "stateMutability": "nonpayable",
      "type": "function"
    },
    {
      "inputs": [
        {
          "internalType": "bytes4",
          "name": "interfaceId",
          "type": "bytes4"
        }
      ],
      "name": "supportsInterface",
      "outputs": [
        {
          "internalType": "bool",
          "name": "",
          "type": "bool"
        }
      ],
      "stateMutability": "view",
      "type": "function"
    },
    {
      "inputs": [],
      "name": "symbol",
      "outputs": [
        {
          "internalType": "string",
          "name": "",
          "type": "string"
        }
      ],
      "stateMutability": "view",
      "type": "function"
    },
    {
      "inputs": [
        {
          "internalType": "uint256",
          "name": "tokenId",
          "type": "uint256"
        }
      ],
      "name": "tokenURI",
      "outputs": [
        {
          "internalType": "string",
          "name": "",
          "type": "string"
        }
      ],
      "stateMutability": "view",
      "type": "function"
    },
    {
      "inputs": [
        {
          "internalType": "address",
          "name": "from",
          "type": "address"
        },
        {
          "internalType": "address",
          "name": "to",
          "type": "address"
        },
        {
          "internalType": "uint256",
          "name": "tokenId",
          "type": "uint256"
        }
      ],
      "name": "transferFrom",
      "outputs": [],
      "stateMutability": "nonpayable",
      "type": "function"
    }
  ],
  "bytecode": "0x608060405266038d7ea4c68000600a553480156200001c57600080fd5b506040516200445d3803806200445d8339810160408190526200003f916200016d565b604080518082018252600b81526a436172626f6e2053696e6b60a81b60208083019182528351808501909452600484526353494e4b60e01b9084015281519192916200008e91600091620000c7565b508051620000a4906001906020840190620000c7565b5050600160075550600980546001600160a01b03191633179055600b55620001c4565b828054620000d59062000187565b90600052602060002090601f016020900481019282620000f9576000855562000144565b82601f106200011457805160ff191683800117855562000144565b8280016001018555821562000144579182015b828111156200014457825182559160200191906001019062000127565b506200015292915062000156565b5090565b5b8082111562000152576000815560010162000157565b6000602082840312156200018057600080fd5b5051919050565b600181811c908216806200019c57607f821691505b60208210811415620001be57634e487b7160e01b600052602260045260246000fd5b50919050565b61428980620001d46000396000f3fe6080604052600436106101b75760003560e01c806395d89b41116100ec578063bf65a3331161008a578063db0bd5c911610064578063db0bd5c9146104cf578063e985e9c5146104e4578063f5a06acf1461052d578063fb1d60e31461054057600080fd5b8063bf65a33314610485578063c87b56dd1461049a578063cbd2bdfd146104ba57600080fd5b8063a22cb465116100c6578063a22cb46514610405578063a923f18c14610425578063b3de019c14610445578063b88d4fde1461046557600080fd5b806395d89b41146103c85780639979ef45146103dd5780639e78efd6146103f057600080fd5b806342842e0e1161015957806370a082311161013357806370a082311461033b57806378bd79351461035b5780637b154140146103885780637c726b69146103a857600080fd5b806342842e0e146102ce5780634fa7b507146102ee5780636352211e1461031b57600080fd5b8063095ea7b311610195578063095ea7b31461024b57806312e855851461026d5780631d8df68f1461028c57806323b872dd146102ae57600080fd5b806301ffc9a7146101bc57806306fdde03146101f1578063081812fc14610213575b600080fd5b3480156101c857600080fd5b506101dc6101d73660046139df565b610553565b60405190151581526020015b60405180910390f35b3480156101fd57600080fd5b5061020661057e565b6040516101e89190613a54565b34801561021f57600080fd5b5061023361022e366004613a67565b610610565b6040516001600160a01b0390911681526020016101e8565b34801561025757600080fd5b5061026b610266366004613a9c565b610637565b005b34801561027957600080fd5b50600a545b6040519081526020016101e8565b34801561029857600080fd5b506102a1610752565b6040516101e89190613bc6565b3480156102ba57600080fd5b5061026b6102c9366004613c28565b610af0565b3480156102da57600080fd5b5061026b6102e9366004613c28565b610b21565b3480156102fa57600080fd5b5061030e610309366004613a67565b610b3c565b6040516101e89190613c64565b34801561032757600080fd5b50610233610336366004613a67565b610bee565b34801561034757600080fd5b5061027e610356366004613cdf565b610c4e565b34801561036757600080fd5b5061037b610376366004613a67565b610cd4565b6040516101e89190613cfa565b34801561039457600080fd5b5061026b6103a3366004613d0d565b610f94565b3480156103b457600080fd5b5061026b6103c3366004613a67565b6111ff565b3480156103d457600080fd5b5061020661122e565b61026b6103eb366004613a67565b61123d565b3480156103fc57600080fd5b506102a161146e565b34801561041157600080fd5b5061026b610420366004613d3f565b611803565b34801561043157600080fd5b5061026b610440366004613d72565b611812565b34801561045157600080fd5b5061026b610460366004613d0d565b61198d565b34801561047157600080fd5b5061026b610480366004613e4c565b611a97565b34801561049157600080fd5b506102a1611acf565b3480156104a657600080fd5b506102066104b5366004613a67565b611e76565b3480156104c657600080fd5b506102a1611f87565b3480156104db57600080fd5b506102a1612291565b3480156104f057600080fd5b506101dc6104ff366004613ec8565b6001600160a01b03918216600090815260056020908152604080832093909416825291909152205460ff1690565b61026b61053b366004613a67565b61263c565b61026b61054e366004613f12565b6128b7565b60006001600160e01b03198216632483248360e11b1480610578575061057882612bcc565b92915050565b60606000805461058d90613fc7565b80601f01602080910402602001604051908101604052809291908181526020018280546105b990613fc7565b80156106065780601f106105db57610100808354040283529160200191610606565b820191906000526020600020905b8154815290600101906020018083116105e957829003601f168201915b5050505050905090565b600061061b82612c1c565b506000908152600460205260409020546001600160a01b031690565b600061064282610bee565b9050806001600160a01b0316836001600160a01b031614156106b55760405162461bcd60e51b815260206004820152602160248201527f4552433732313a20617070726f76616c20746f2063757272656e74206f776e656044820152603960f91b60648201526084015b60405180910390fd5b336001600160a01b03821614806106d157506106d181336104ff565b6107435760405162461bcd60e51b815260206004820152603d60248201527f4552433732313a20617070726f76652063616c6c6572206973206e6f7420746f60448201527f6b656e206f776e6572206f7220617070726f76656420666f7220616c6c00000060648201526084016106ac565b61074d8383612c7b565b505050565b6060600061075f60085490565b90506000805b828110156107b857600c600061077c836001614018565b815260208101919091526040016000206008015460ff16156107a657816107a281614030565b9250505b806107b081614030565b915050610765565b508067ffffffffffffffff8111156107d2576107d2613dc0565b60405190808252806020026020018201604052801561080b57816020015b6107f861384c565b8152602001906001900390816107f05790505b5092506000805b83811015610ae957600c6000610829836001614018565b815260208101919091526040016000206008015460ff1615610ad757600c6000610854836001614018565b8152602001908152602001600020604051806101a001604052908160008201805461087e90613fc7565b80601f01602080910402602001604051908101604052809291908181526020018280546108aa90613fc7565b80156108f75780601f106108cc576101008083540402835291602001916108f7565b820191906000526020600020905b8154815290600101906020018083116108da57829003601f168201915b5050505050815260200160018201805461091090613fc7565b80601f016020809104026020016040519081016040528092919081815260200182805461093c90613fc7565b80156109895780601f1061095e57610100808354040283529160200191610989565b820191906000526020600020905b81548152906001019060200180831161096c57829003601f168201915b505050505081526020016002820180546109a290613fc7565b80601f01602080910402602001604051908101604052809291908181526020018280546109ce90613fc7565b8015610a1b5780601f106109f057610100808354040283529160200191610a1b565b820191906000526020600020905b8154815290600101906020018083116109fe57829003601f168201915b50505091835250506003820154602082015260048201546001600160a01b0390811660408301526005830154811660608301526006830154166080820152600782015460a0820152600882015460ff808216151560c08401526101008083048216151560e085015262010000909204161515908201526009820154610120820152600a90910154610140909101528551869084908110610abd57610abd61404b565b60200260200101819052508180610ad390614030565b9250505b80610ae181614030565b915050610812565b5050505090565b610afa3382612ce9565b610b165760405162461bcd60e51b81526004016106ac90614061565b61074d838383612d67565b61074d83838360405180602001604052806000815250611a97565b6060600f6000838152602001908152602001600020805480602002602001604051908101604052809291908181526020016000905b82821015610be35760008481526020908190206040805160a0810182526004860290920180546001600160a01b03168352600180820154848601526002820154928401929092526003015460ff8082161515606085015261010090910416151560808301529083529092019101610b71565b505050509050919050565b6000818152600260205260408120546001600160a01b0316806105785760405162461bcd60e51b8152602060048201526018602482015277115490cdcc8c4e881a5b9d985b1a59081d1bdad95b88125160421b60448201526064016106ac565b60006001600160a01b038216610cb85760405162461bcd60e51b815260206004820152602960248201527f4552433732313a2061646472657373207a65726f206973206e6f7420612076616044820152683634b21037bbb732b960b91b60648201526084016106ac565b506001600160a01b031660009081526003602052604090205490565b610cdc61384c565b6000828152600d602052604090205460ff16610d3a5760405162461bcd60e51b815260206004820152601860248201527f41756374696f6e6564204974656d206e6f7420666f756e64000000000000000060448201526064016106ac565b6000828152600c60205260409081902081516101a08101909252805482908290610d6390613fc7565b80601f0160208091040260200160405190810160405280929190818152602001828054610d8f90613fc7565b8015610ddc5780601f10610db157610100808354040283529160200191610ddc565b820191906000526020600020905b815481529060010190602001808311610dbf57829003601f168201915b50505050508152602001600182018054610df590613fc7565b80601f0160208091040260200160405190810160405280929190818152602001828054610e2190613fc7565b8015610e6e5780601f10610e4357610100808354040283529160200191610e6e565b820191906000526020600020905b815481529060010190602001808311610e5157829003601f168201915b50505050508152602001600282018054610e8790613fc7565b80601f0160208091040260200160405190810160405280929190818152602001828054610eb390613fc7565b8015610f005780601f10610ed557610100808354040283529160200191610f00565b820191906000526020600020905b815481529060010190602001808311610ee357829003601f168201915b50505091835250506003820154602082015260048201546001600160a01b0390811660408301526005830154811660608301526006830154166080820152600782015460a0820152600882015460ff808216151560c08401526101008083048216151560e085015262010000909204161515908201526009820154610120820152600a909101546101409091015292915050565b6000828152600c60205260408120600a015490610fb390808080612ecb565b116110005760405162461bcd60e51b815260206004820152601b60248201527f5468652041756374696f6e205374696c6c20436f6e74696e756573000000000060448201526064016106ac565b6000828152600c60205260409020600601546001600160a01b031633146110625760405162461bcd60e51b81526020600482015260166024820152752cb7ba9030b932903737ba103a3432903bb4b73732b960511b60448201526064016106ac565b6000828152600f60205260409020805460019190839081106110865761108661404b565b60009182526020808320600492830201600301805461ff0019166101009515159590950294909417909355848252600c909252604081206007810154928101546006820180546001600160a01b031916905560088201805461ffff1916600117905560099091018290556001600160a01b03169061110690808080612ecb565b6000858152600c60205260408120600a0191909155600b5460649061112b90856140ae565b61113591906140cd565b6000868152600c6020526040902060050154909150611166906001600160a01b031661116183866140ef565b612f2d565b6111708282612f2d565b6040516323b872dd60e01b8152306004820181905233602483015260448201879052906323b872dd90606401600060405180830381600087803b1580156111b657600080fd5b505af11580156111ca573d6000803e3d6000fd5b5050506000868152600c6020526040902060050180546001600160a01b03191633179055506111f885612f8d565b5050505050565b6009546001600160a01b031633146112295760405162461bcd60e51b81526004016106ac90614106565b600a55565b60606001805461058d90613fc7565b6000818152600c60205260409020600701543410156112945760405162461bcd60e51b8152602060048201526013602482015272125b9cdd59999a58da595b9d08105b5bdd5b9d606a1b60448201526064016106ac565b6112a2600080600080612ecb565b6000828152600c60205260409020600a0154116112f95760405162461bcd60e51b815260206004820152601560248201527441756374696f6e206e6f7420617661696c61626c6560581b60448201526064016106ac565b6000818152600c602052604090206008015462010000900460ff166113605760405162461bcd60e51b815260206004820152601860248201527f41756374696f6e206f6e6c7920666f722062696464696e67000000000000000060448201526064016106ac565b6040805160a081018252600091810182905260608101829052608081018290523381523460208201529061139690808080612ecb565b60408083019182526000848152600f6020908152828220805460018181018355918452828420875160049092020180546001600160a01b039092166001600160a01b0319909216919091178155828701519181019190915593516002850155606085015160039094018054608087015115156101000261ff00199615159690961661ffff199091161794909417909355848152600c909252812060090180549161143f83614030565b9091555050506000908152600c6020526040902034600782015560060180546001600160a01b03191633179055565b6060600061147b60085490565b90506000805b828110156114d357600c6000611498836001614018565b815260208101919091526040016000206008015460ff166114c157816114bd81614030565b9250505b806114cb81614030565b915050611481565b508067ffffffffffffffff8111156114ed576114ed613dc0565b60405190808252806020026020018201604052801561152657816020015b61151361384c565b81526020019060019003908161150b5790505b5092506000805b83811015610ae957600c6000611544836001614018565b815260208101919091526040016000206008015460ff166117f157600c600061156e836001614018565b8152602001908152602001600020604051806101a001604052908160008201805461159890613fc7565b80601f01602080910402602001604051908101604052809291908181526020018280546115c490613fc7565b80156116115780601f106115e657610100808354040283529160200191611611565b820191906000526020600020905b8154815290600101906020018083116115f457829003601f168201915b5050505050815260200160018201805461162a90613fc7565b80601f016020809104026020016040519081016040528092919081815260200182805461165690613fc7565b80156116a35780601f10611678576101008083540402835291602001916116a3565b820191906000526020600020905b81548152906001019060200180831161168657829003601f168201915b505050505081526020016002820180546116bc90613fc7565b80601f01602080910402602001604051908101604052809291908181526020018280546116e890613fc7565b80156117355780601f1061170a57610100808354040283529160200191611735565b820191906000526020600020905b81548152906001019060200180831161171857829003601f168201915b50505091835250506003820154602082015260048201546001600160a01b0390811660408301526005830154811660608301526006830154166080820152600782015460a0820152600882015460ff808216151560c08401526101008083048216151560e085015262010000909204161515908201526009820154610120820152600a909101546101409091015285518690849081106117d7576117d761404b565b602002602001018190525081806117ed90614030565b9250505b806117fb81614030565b91505061152d565b61180e33838361316e565b5050565b6000868152600c60205260409020600501546001600160a01b0316331461184b5760405162461bcd60e51b81526004016106ac90614106565b6000868152600c6020526040902060090154156118aa5760405162461bcd60e51b815260206004820152601f60248201527f57696e6e65722073686f756c6420636c61696d207072697a652066697273740060448201526064016106ac565b6000868152600c6020526040902060080154610100900460ff16611932576118d3306001611803565b6040516323b872dd60e01b8152336004820152306024820181905260448201889052906323b872dd90606401600060405180830381600087803b15801561191957600080fd5b505af115801561192d573d6000803e3d6000fd5b505050505b6000868152600c6020526040812060098101919091556008018054861515620100000262ffffff199091161761010017905561197084848484612ecb565b6000968752600c6020526040909620600a01959095555050505050565b6000828152600c60205260409020600501546001600160a01b031633146119c65760405162461bcd60e51b81526004016106ac90614106565b6000828152600c60205260408120600a0154906119e590808080612ecb565b11611a325760405162461bcd60e51b815260206004820152601b60248201527f5468652041756374696f6e205374696c6c20436f6e74696e756573000000000060448201526064016106ac565b60008111611a825760405162461bcd60e51b815260206004820152601f60248201527f5072696365206d7573742062652067726561746572207468616e207a65726f0060448201526064016106ac565b6000918252600c602052604090912060070155565b611aa13383612ce9565b611abd5760405162461bcd60e51b81526004016106ac90614061565b611ac98484848461323d565b50505050565b60606000611adc60085490565b90506000805b82811015611b3d5733600c6000611afa846001614018565b81526020810191909152604001600020600501546001600160a01b03161415611b2b5781611b2781614030565b9250505b80611b3581614030565b915050611ae2565b508067ffffffffffffffff811115611b5757611b57613dc0565b604051908082528060200260200182016040528015611b9057816020015b611b7d61384c565b815260200190600190039081611b755790505b5092506000805b83811015610ae95733600c6000611baf846001614018565b81526020810191909152604001600020600501546001600160a01b03161415611e6457600c6000611be1836001614018565b8152602001908152602001600020604051806101a0016040529081600082018054611c0b90613fc7565b80601f0160208091040260200160405190810160405280929190818152602001828054611c3790613fc7565b8015611c845780601f10611c5957610100808354040283529160200191611c84565b820191906000526020600020905b815481529060010190602001808311611c6757829003601f168201915b50505050508152602001600182018054611c9d90613fc7565b80601f0160208091040260200160405190810160405280929190818152602001828054611cc990613fc7565b8015611d165780601f10611ceb57610100808354040283529160200191611d16565b820191906000526020600020905b815481529060010190602001808311611cf957829003601f168201915b50505050508152602001600282018054611d2f90613fc7565b80601f0160208091040260200160405190810160405280929190818152602001828054611d5b90613fc7565b8015611da85780601f10611d7d57610100808354040283529160200191611da8565b820191906000526020600020905b815481529060010190602001808311611d8b57829003601f168201915b50505091835250506003820154602082015260048201546001600160a01b0390811660408301526005830154811660608301526006830154166080820152600782015460a0820152600882015460ff808216151560c08401526101008083048216151560e085015262010000909204161515908201526009820154610120820152600a90910154610140909101528551869084908110611e4a57611e4a61404b565b60200260200101819052508180611e6090614030565b9250505b80611e6e81614030565b915050611b97565b6060611e8182612c1c565b60008281526006602052604081208054611e9a90613fc7565b80601f0160208091040260200160405190810160405280929190818152602001828054611ec690613fc7565b8015611f135780601f10611ee857610100808354040283529160200191611f13565b820191906000526020600020905b815481529060010190602001808311611ef657829003601f168201915b505050505090506000611f3160408051602081019091526000815290565b9050805160001415611f44575092915050565b815115611f76578082604051602001611f5e929190614133565b60405160208183030381529060405292505050919050565b611f7f84613270565b949350505050565b60606000611f9460085490565b90508067ffffffffffffffff811115611faf57611faf613dc0565b604051908082528060200260200182016040528015611fe857816020015b611fd561384c565b815260200190600190039081611fcd5790505b50915060005b8181101561228c57600c6000612005836001614018565b8152602001908152602001600020604051806101a001604052908160008201805461202f90613fc7565b80601f016020809104026020016040519081016040528092919081815260200182805461205b90613fc7565b80156120a85780601f1061207d576101008083540402835291602001916120a8565b820191906000526020600020905b81548152906001019060200180831161208b57829003601f168201915b505050505081526020016001820180546120c190613fc7565b80601f01602080910402602001604051908101604052809291908181526020018280546120ed90613fc7565b801561213a5780601f1061210f5761010080835404028352916020019161213a565b820191906000526020600020905b81548152906001019060200180831161211d57829003601f168201915b5050505050815260200160028201805461215390613fc7565b80601f016020809104026020016040519081016040528092919081815260200182805461217f90613fc7565b80156121cc5780601f106121a1576101008083540402835291602001916121cc565b820191906000526020600020905b8154815290600101906020018083116121af57829003601f168201915b50505091835250506003820154602082015260048201546001600160a01b0390811660408301526005830154811660608301526006830154166080820152600782015460a0820152600882015460ff808216151560c08401526101008083048216151560e085015262010000909204161515908201526009820154610120820152600a9091015461014090910152835184908390811061226e5761226e61404b565b6020026020010181905250808061228490614030565b915050611fee565b505090565b6060600061229e60085490565b90506000805b82811015612301576122ba600080600080612ecb565b600c60006122c9846001614018565b8152602001908152602001600020600a015411156122ef57816122eb81614030565b9250505b806122f981614030565b9150506122a4565b508067ffffffffffffffff81111561231b5761231b613dc0565b60405190808252806020026020018201604052801561235457816020015b61234161384c565b8152602001906001900390816123395790505b5092506000805b83811015610ae957612371600080600080612ecb565b600c6000612380846001614018565b8152602001908152602001600020600a0154111561262a57600c60006123a7836001614018565b8152602001908152602001600020604051806101a00160405290816000820180546123d190613fc7565b80601f01602080910402602001604051908101604052809291908181526020018280546123fd90613fc7565b801561244a5780601f1061241f5761010080835404028352916020019161244a565b820191906000526020600020905b81548152906001019060200180831161242d57829003601f168201915b5050505050815260200160018201805461246390613fc7565b80601f016020809104026020016040519081016040528092919081815260200182805461248f90613fc7565b80156124dc5780601f106124b1576101008083540402835291602001916124dc565b820191906000526020600020905b8154815290600101906020018083116124bf57829003601f168201915b505050505081526020016002820180546124f590613fc7565b80601f016020809104026020016040519081016040528092919081815260200182805461252190613fc7565b801561256e5780601f106125435761010080835404028352916020019161256e565b820191906000526020600020905b81548152906001019060200180831161255157829003601f168201915b50505091835250506003820154602082015260048201546001600160a01b0390811660408301526005830154811660608301526006830154166080820152600782015460a0820152600882015460ff808216151560c08401526101008083048216151560e085015262010000909204161515908201526009820154610120820152600a909101546101409091015285518690849081106126105761261061404b565b6020026020010181905250818061262690614030565b9250505b8061263481614030565b91505061235b565b6126446132e4565b6000818152600c602052604090206007015434101561269b5760405162461bcd60e51b8152602060048201526013602482015272125b9cdd59999a58da595b9d08105b5bdd5b9d606a1b60448201526064016106ac565b6126a9600080600080612ecb565b6000828152600c60205260409020600a0154116127085760405162461bcd60e51b815260206004820152601c60248201527f5468652041756374696f6e206973206e6f7420617661696c61626c650000000060448201526064016106ac565b6000818152600c602052604090206008015462010000900460ff16156127705760405162461bcd60e51b815260206004820181905260248201527f5468652041756374696f6e206973206f6e6c7920666f7220707572636861736560448201526064016106ac565b6000818152600c60205260408120600481015460088201805461ffff1916600117905560099091018290556001600160a01b0316906127b190808080612ecb565b6000838152600c60205260408120600a0191909155600b546064906127d690346140ae565b6127e091906140cd565b6000848152600c602052604090206005015490915061280c906001600160a01b031661116183346140ef565b6128168282612f2d565b6000838152600c6020526040908190206003015490516323b872dd60e01b8152306004820181905233602483015260448201929092526323b872dd90606401600060405180830381600087803b15801561286f57600080fd5b505af1158015612883573d6000803e3d6000fd5b5050506000848152600c6020526040902060050180546001600160a01b03191633179055506128b4915061333e9050565b50565b6128bf6132e4565b6000811161291b5760405162461bcd60e51b815260206004820152602360248201527f53616c6573207072696365206d7573742062652067726561746572207468616e60448201526210181760e91b60648201526084016106ac565b600a543410156129835760405162461bcd60e51b815260206004820152602d60248201527f5072696365206d7573742062652067726561746572207468616e20746865206c60448201526c34b9ba34b73390383934b1b29760991b60648201526084016106ac565b61298c82613345565b6129cf5760405162461bcd60e51b815260206004820152601460248201527321b7bab632103737ba1036b4b73a103a37b5b2b760611b60448201526064016106ac565b60006129da60085490565b90506129e461384c565b60608101829052868152602081018690526040810185905260e08101839052612a106000808080612ecb565b610180820152336080820181905260a08201526000828152600c60209081526040909120825180518493612a489284929101906138d5565b506020828101518051612a6192600185019201906138d5565b5060408201518051612a7d9160028401916020909101906138d5565b506060820151600382015560808201516004820180546001600160a01b03199081166001600160a01b039384161790915560a0840151600584018054831691841691909117905560c084015160068401805490921690831617905560e083015160078301556101008084015160088401805461012087015161014088015161ffff1990921693151561ff001916939093179215159093029190911762ff00001916620100009215159290920291909117905561016083015160098084019190915561018090930151600a928301556000858152600d60205260409020805460ff1916600117905591549054612b76929190911690612f2d565b604080513381526000602082018190528183018690526060820152905183917f6228edab31b74e288818bad261cdd13fd9dbbb6d2b46e98ad1cf67b601c3340e919081900360800190a250506111f86001600755565b60006001600160e01b031982166380ac58cd60e01b1480612bfd57506001600160e01b03198216635b5e139f60e01b145b8061057857506301ffc9a760e01b6001600160e01b0319831614610578565b6000818152600260205260409020546001600160a01b03166128b45760405162461bcd60e51b8152602060048201526018602482015277115490cdcc8c4e881a5b9d985b1a59081d1bdad95b88125160421b60448201526064016106ac565b600081815260046020526040902080546001600160a01b0319166001600160a01b0384169081179091558190612cb082610bee565b6001600160a01b03167f8c5be1e5ebec7d5bd14f71427d1e84f3dd0314c0f7b2291e5b200ac8c7c3b92560405160405180910390a45050565b600080612cf583610bee565b9050806001600160a01b0316846001600160a01b03161480612d3c57506001600160a01b0380821660009081526005602090815260408083209388168352929052205460ff165b80611f7f5750836001600160a01b0316612d5584610610565b6001600160a01b031614949350505050565b826001600160a01b0316612d7a82610bee565b6001600160a01b031614612da05760405162461bcd60e51b81526004016106ac90614162565b6001600160a01b038216612e025760405162461bcd60e51b8152602060048201526024808201527f4552433732313a207472616e7366657220746f20746865207a65726f206164646044820152637265737360e01b60648201526084016106ac565b826001600160a01b0316612e1582610bee565b6001600160a01b031614612e3b5760405162461bcd60e51b81526004016106ac90614162565b600081815260046020908152604080832080546001600160a01b03199081169091556001600160a01b0387811680865260038552838620805460001901905590871680865283862080546001019055868652600290945282852080549092168417909155905184937fddf252ad1be2c89b69c2b068fc378daa952ba7f163c4a11628f55a4df523b3ef91a4505050565b6000612eda82620151806140ae565b612ee684610e106140ae565b612ef186603c6140ae565b612efc8860016140ae565b612f069042614018565b612f109190614018565b612f1a9190614018565b612f249190614018565b95945050505050565b6000826001600160a01b03168260405160006040518083038185875af1925050503d8060008114612f7a576040519150601f19603f3d011682016040523d82523d6000602084013e612f7f565b606091505b505090508061074d57600080fd5b60005b6000828152600f6020526040902054811015613156576000828152600f60205260409020805433919083908110612fc957612fc961404b565b60009182526020909120600490910201546001600160a01b0316146130b5576000828152600f602052604090208054600191908390811061300c5761300c61404b565b906000526020600020906004020160030160006101000a81548160ff0219169083151502179055506130b0600f6000848152602001908152602001600020828154811061305b5761305b61404b565b60009182526020808320600490920290910154858352600f909152604090912080546001600160a01b0390921691849081106130995761309961404b565b906000526020600020906004020160010154612f2d565b613102565b6000828152600f60205260409020805460019190839081106130d9576130d961404b565b906000526020600020906004020160030160016101000a81548160ff0219169083151502179055505b613110600080600080612ecb565b6000838152600f602052604090208054839081106131305761313061404b565b60009182526020909120600260049092020101558061314e81614030565b915050612f90565b506000818152600f602052604081206128b491613959565b816001600160a01b0316836001600160a01b031614156131d05760405162461bcd60e51b815260206004820152601960248201527f4552433732313a20617070726f766520746f2063616c6c65720000000000000060448201526064016106ac565b6001600160a01b03838116600081815260056020908152604080832094871680845294825291829020805460ff191686151590811790915591519182527f17307eab39ab6107e8899845ad3d59bd9653f200f220920489ca2b5937696c31910160405180910390a3505050565b613248848484612d67565b6132548484848461337f565b611ac95760405162461bcd60e51b81526004016106ac906141a7565b606061327b82612c1c565b600061329260408051602081019091526000815290565b905060008151116132b257604051806020016040528060008152506132dd565b806132bc8461347a565b6040516020016132cd929190614133565b6040516020818303038152906040525b9392505050565b600260075414156133375760405162461bcd60e51b815260206004820152601f60248201527f5265656e7472616e637947756172643a207265656e7472616e742063616c6c0060448201526064016106ac565b6002600755565b6001600755565b6000613355600880546001019055565b600061336060085490565b905061336c3382613517565b61337681846136a2565b50600192915050565b60006001600160a01b0384163b1561347257604051630a85bd0160e11b81526001600160a01b0385169063150b7a02906133c39033908990889088906004016141f9565b6020604051808303816000875af19250505080156133fe575060408051601f3d908101601f191682019092526133fb91810190614236565b60015b613458573d80801561342c576040519150601f19603f3d011682016040523d82523d6000602084013e613431565b606091505b5080516134505760405162461bcd60e51b81526004016106ac906141a7565b805181602001fd5b6001600160e01b031916630a85bd0160e11b149050611f7f565b506001611f7f565b6060600061348783613774565b600101905060008167ffffffffffffffff8111156134a7576134a7613dc0565b6040519080825280601f01601f1916602001820160405280156134d1576020820181803683370190505b5090508181016020015b600019016f181899199a1a9b1b9c1cb0b131b232b360811b600a86061a8153600a850494508461350a5761350f565b6134db565b509392505050565b6001600160a01b03821661356d5760405162461bcd60e51b815260206004820181905260248201527f4552433732313a206d696e7420746f20746865207a65726f206164647265737360448201526064016106ac565b6000818152600260205260409020546001600160a01b0316156135d25760405162461bcd60e51b815260206004820152601c60248201527f4552433732313a20746f6b656e20616c7265616479206d696e7465640000000060448201526064016106ac565b6000818152600260205260409020546001600160a01b0316156136375760405162461bcd60e51b815260206004820152601c60248201527f4552433732313a20746f6b656e20616c7265616479206d696e7465640000000060448201526064016106ac565b6001600160a01b038216600081815260036020908152604080832080546001019055848352600290915280822080546001600160a01b0319168417905551839291907fddf252ad1be2c89b69c2b068fc378daa952ba7f163c4a11628f55a4df523b3ef908290a45050565b6000828152600260205260409020546001600160a01b031661371d5760405162461bcd60e51b815260206004820152602e60248201527f45524337323155524953746f726167653a2055524920736574206f66206e6f6e60448201526d32bc34b9ba32b73a103a37b5b2b760911b60648201526084016106ac565b6000828152600660209081526040909120825161373c928401906138d5565b506040518281527ff8e1a15aba9398e019f0b49df1a4fde98ee17ae345cb5f6b5e2c27f5033e8ce79060200160405180910390a15050565b60008072184f03e93ff9f4daa797ed6e38ed64bf6a1f0160401b83106137b35772184f03e93ff9f4daa797ed6e38ed64bf6a1f0160401b830492506040015b6d04ee2d6d415b85acef810000000083106137df576d04ee2d6d415b85acef8100000000830492506020015b662386f26fc1000083106137fd57662386f26fc10000830492506010015b6305f5e1008310613815576305f5e100830492506008015b612710831061382957612710830492506004015b6064831061383b576064830492506002015b600a83106105785760010192915050565b604051806101a001604052806060815260200160608152602001606081526020016000815260200160006001600160a01b0316815260200160006001600160a01b0316815260200160006001600160a01b031681526020016000815260200160001515815260200160001515815260200160001515815260200160008152602001600081525090565b8280546138e190613fc7565b90600052602060002090601f0160209004810192826139035760008555613949565b82601f1061391c57805160ff1916838001178555613949565b82800160010185558215613949579182015b8281111561394957825182559160200191906001019061392e565b5061395592915061397a565b5090565b50805460008255600402906000526020600020908101906128b4919061398f565b5b80821115613955576000815560010161397b565b5b808211156139555780546001600160a01b0319168155600060018201819055600282015560038101805461ffff19169055600401613990565b6001600160e01b0319811681146128b457600080fd5b6000602082840312156139f157600080fd5b81356132dd816139c9565b60005b83811015613a175781810151838201526020016139ff565b83811115611ac95750506000910152565b60008151808452613a408160208601602086016139fc565b601f01601f19169290920160200192915050565b6020815260006132dd6020830184613a28565b600060208284031215613a7957600080fd5b5035919050565b80356001600160a01b0381168114613a9757600080fd5b919050565b60008060408385031215613aaf57600080fd5b613ab883613a80565b946020939093013593505050565b60006101a08251818552613adc82860182613a28565b91505060208301518482036020860152613af68282613a28565b91505060408301518482036040860152613b108282613a28565b915050606083015160608501526080830151613b3760808601826001600160a01b03169052565b5060a0830151613b5260a08601826001600160a01b03169052565b5060c0830151613b6d60c08601826001600160a01b03169052565b5060e083015160e085015261010080840151613b8c8287018215159052565b5050610120838101511515908501526101408084015115159085015261016080840151908501526101809283015192909301919091525090565b6000602080830181845280855180835260408601915060408160051b870101925083870160005b82811015613c1b57603f19888603018452613c09858351613ac6565b94509285019290850190600101613bed565b5092979650505050505050565b600080600060608486031215613c3d57600080fd5b613c4684613a80565b9250613c5460208501613a80565b9150604084013590509250925092565b602080825282518282018190526000919060409081850190868401855b82811015613cd257815180516001600160a01b031685528681015187860152858101518686015260608082015115159086015260809081015115159085015260a09093019290850190600101613c81565b5091979650505050505050565b600060208284031215613cf157600080fd5b6132dd82613a80565b6020815260006132dd6020830184613ac6565b60008060408385031215613d2057600080fd5b50508035926020909101359150565b80358015158114613a9757600080fd5b60008060408385031215613d5257600080fd5b613d5b83613a80565b9150613d6960208401613d2f565b90509250929050565b60008060008060008060c08789031215613d8b57600080fd5b86359550613d9b60208801613d2f565b95989597505050506040840135936060810135936080820135935060a0909101359150565b634e487b7160e01b600052604160045260246000fd5b600067ffffffffffffffff80841115613df157613df1613dc0565b604051601f8501601f19908116603f01168101908282118183101715613e1957613e19613dc0565b81604052809350858152868686011115613e3257600080fd5b858560208301376000602087830101525050509392505050565b60008060008060808587031215613e6257600080fd5b613e6b85613a80565b9350613e7960208601613a80565b925060408501359150606085013567ffffffffffffffff811115613e9c57600080fd5b8501601f81018713613ead57600080fd5b613ebc87823560208401613dd6565b91505092959194509250565b60008060408385031215613edb57600080fd5b613ee483613a80565b9150613d6960208401613a80565b600082601f830112613f0357600080fd5b6132dd83833560208501613dd6565b600080600080600060a08688031215613f2a57600080fd5b853567ffffffffffffffff80821115613f4257600080fd5b613f4e89838a01613ef2565b96506020880135915080821115613f6457600080fd5b613f7089838a01613ef2565b95506040880135915080821115613f8657600080fd5b613f9289838a01613ef2565b94506060880135915080821115613fa857600080fd5b50613fb588828901613ef2565b95989497509295608001359392505050565b600181811c90821680613fdb57607f821691505b60208210811415613ffc57634e487b7160e01b600052602260045260246000fd5b50919050565b634e487b7160e01b600052601160045260246000fd5b6000821982111561402b5761402b614002565b500190565b600060001982141561404457614044614002565b5060010190565b634e487b7160e01b600052603260045260246000fd5b6020808252602d908201527f4552433732313a2063616c6c6572206973206e6f7420746f6b656e206f776e6560408201526c1c881bdc88185c1c1c9bdd9959609a1b606082015260800190565b60008160001904831182151516156140c8576140c8614002565b500290565b6000826140ea57634e487b7160e01b600052601260045260246000fd5b500490565b60008282101561410157614101614002565b500390565b602080825260139082015272556e617574686f72697a656420656e7469747960681b604082015260600190565b600083516141458184602088016139fc565b8351908301906141598183602088016139fc565b01949350505050565b60208082526025908201527f4552433732313a207472616e736665722066726f6d20696e636f72726563742060408201526437bbb732b960d91b606082015260800190565b60208082526032908201527f4552433732313a207472616e7366657220746f206e6f6e20455243373231526560408201527131b2b4bb32b91034b6b83632b6b2b73a32b960711b606082015260800190565b6001600160a01b038581168252841660208201526040810183905260806060820181905260009061422c90830184613a28565b9695505050505050565b60006020828403121561424857600080fd5b81516132dd816139c956fea2646970667358221220872e5eb98e398e2f856be08a7b702ade0556a04fd6ca6fd79f0ca77c9b4cf9b064736f6c634300080b0033",
  "linkReferences": {},
  "deployedLinkReferences": {}
}